:02000004900466
:1000000000000220D5060490D1060490054B049010
:10001000D1060490D1060490D1060490000000009F
:10002000000000000000000000000000D106049065
:10003000D106049000000000D1060490894A049083
:10004000D1060490D1060490D1060490D106049004
:10005000D1060490D1060490D1060490D1060490F4
:10006000D1060490D1060490D10604908D460490E8
:1000700099460490F12E0490A5460490B146049050
:1000800001FB0490D53A0490D1060490D106049067
:10009000D1060490D1060490D1060490D1060490B4
:1000A000D1060490D1060490D1060490D1060490A4
:1000B00059EF049065EF049071EF0490153B0490A4
:1000C000D1060490213B0490D1060490E9E7049006
:1000D000F5E7049011F9049041F9049079F904903E
:1000E000D1060490D106049000000000D1060490CF
:1000F000D1060490D1060490D1060490D106049054
:10010000D1060490D10604907DEF049001E804909C
:10011000B1F90490E9F90490B1310490D10604904A
:1001200099310490A531049025E8049065E8049085
:1001300041FB0490D1060490D1060490D1060490AE
:1001400000000000000000000000000000000000AF
:10015000D1060490D1060490D106049021FA0490AF
:100160002D3B0490D1060490994A0490BD4A049016
:10017000D1060490E14A0490D1060490D10604907F
:10018000D1060490D106049059FA049091FA049093
:100190000DE8049019E80490D1060490D10604906B
:1001A000D1060490D1060490D1060490D1060490A3
:1001B000DD420490D1060490D1060490D10604904B
:1001C000D1060490D1060490D1060490D106049083
:1001D000D1060490D1060490D1060490D106049073
:1001E000D1060490D1060490D1060490D106049063
:1001F000D1060490D1060490D1060490D106049053
:10020000D1060490D1060490D1060490D106049042
:10021000D1060490D1060490D1060490D106049032
:10022000D1060490D1060490D1060490000000008D
:10023000D1060490D106049000000000D10604907D
:10024000D1060490D1060490D1060490D106049002
:10025000D1060490D1060490D1060490D1060490F2
:10026000D1060490D1060490D1060490D1060490E2
:10027000D1060490D1060490C9FA04900000000051
:10028000D1060490D1060490D1060490000000002D
:0802900000000000D1060490FB
:1002980081F0004102E000BF83F0004330B54FEA2F
:1002A80041044FEA430594EA050F08BF90EA020F9C
:1002B8001FBF54EA000C55EA020C7FEA645C7FEA2F
:1002C800655C00F0E2804FEA5454D4EB5555B8BF52
:1002D8006D420CDD2C4480EA020281EA030382EAC3
:1002E800000083EA010180EA020281EA0303362D55
:1002F80088BF30BD11F0004F4FEA01314FF4801C28
:100308004CEA113102D0404261EB410113F0004F39
:100318004FEA03334CEA133302D0524263EB4303F0
:1003280094EA050F00F0A780A4F10104D5F1200E8E
:100338000DDB02FA0EFC22FA05F2801841F10001E9
:1003480003FA0EF2801843FA05F359410EE0A5F1BD
:1003580020050EF1200E012A03FA0EFC28BF4CF0EE
:10036800020C43FA05F3C01851EBE37101F00045A4
:1003780007D54FF0000EDCF1000C7EEB00006EEBB1
:100388000101B1F5801F1BD3B1F5001F0CD349083B
:100398005FEA30004FEA3C0C04F101044FEA445292
:1003A80012F5800F80F09A80BCF1004F08BF5FEA19
:1003B800500C50F1000041EB045141EA050130BDF9
:1003C8005FEA4C0C404141EB0101013C28BFB1F50B
:1003D800801FE9D291F0000F04BF01460020B1FA56
:1003E80081F308BF2033A3F10B03B3F120020CDA29
:1003F8000C3208DD02F1140CC2F10C0201FA0CF007
:1004080021FA02F10CE002F11402D8BFC2F1200C6B
:1004180001FA02F120FA0CFCDCBF41EA0C01904021
:10042800E41AA2BF01EB0451294330BD6FEA04046A
:100438001F3C1CDA0C340EDC04F11404C4F1200255
:1004480020FA04F001FA02F340EA030021FA04F367
:1004580045EA030130BDC4F10C04C4F1200220FABE
:1004680002F001FA04F340EA0300294630BD21FAFC
:1004780004F0294630BD94F0000F83F4801306BFC2
:1004880081F480110134013D4EE77FEA645C18BFB6
:100498007FEA655C29D094EA050F08BF90EA020F4D
:1004A80005D054EA000C04BF1946104630BD91EA45
:1004B800030F1EBF0021002030BD5FEA545C05D148
:1004C8004000494128BF41F0004130BD14F5800487
:1004D8003CBF01F5801130BD01F0004545F0FE41FB
:1004E80041F470014FF0000030BD7FEA645C1ABF30
:1004F800194610467FEA655C1CBF0B46024650EA67
:10050800013406BF52EA033591EA030F41F4002192
:1005180030BD00BF90F0000F04BF0021704730B518
:100528004FF4806404F132044FF000054FF00001ED
:1005380050E700BF90F0000F04BF0021704730B5AE
:100548004FF4806404F1320410F0004548BF404283
:100558004FF000013EE700BF42004FEAE2014FEAD8
:1005680031014FEA02701FBF12F07F4393F07F4FB3
:1005780081F06051704732F07F4208BF704793F0B6
:100588007F4F04BF41F40021704730B54FF46074C9
:1005980001F0004521F000411CE700BF50EA0102CC
:1005A80008BF704730B54FF000050AE050EA010275
:1005B80008BF704730B511F0004502D5404261EBE5
:1005C80041014FF4806404F132045FEA915C3FF426
:1005D800D8AE4FF003025FEADC0C18BF03325FEAC3
:1005E800DC0C18BF033202EBDC02C2F1200300FA74
:1005F80003FC20FA02F001FA03FE40EA0E0021FA99
:1006080002F11444BDE600BF53B94AB9002908BF36
:1006180000281CBF4FF0FF314FF0FF3000F00CB83E
:10062800ADF1080C6DE904CE11F040FEDDF804E0F0
:10063800DDE9022304B07047704700BF0348044B4C
:10064800834202D0034B03B118477047C803002404
:10065800C8030024000000000548064B1B1AD90FE8
:1006680001EBA301491002D0034B03B118477047AF
:10067800C8030024C80300240000000010B5064C7D
:10068800237843B9FFF7DAFF044B13B10448AFF3FB
:1006980000800123237010BDC8030024000000005F
:1006A800202C059008B5054B1BB105490548AFF34B
:1006B8000080BDE80840FFF7CFBF00BF0000000082
:1006C800CC030024202C0590FEE700BF0B4A0C4BFE
:1006D800934204D0D21A0B49184611F0D9FD0A4AA0
:1006E8000A4B934204D0D21A0021184611F09EFDFD
:1006F80011F0AAFD00F092F9FEE700BFC80300243C
:1007080000000024542C059010D70624C8030024A8
:100718002DE9F04F2DED088B8BB00746AB481446FA
:100728000392B6EE009A884600F08EFEA748F7EED0
:10073800008A00F095FE0821A44800F093FE0021ED
:10074800A248DFEDA39A80FE298A00F08BFE9FED78
:10075800A1BA80FE290A80FE680A30EE490AF0EE46
:100768004B0A88FE688A30EE080A80FE290A80FE55
:10077800680A11F055F909219448B0EE40AA00F032
:1007880071FE01219148C0FE29AA00F06BFE0A21E2
:1007980080FE298A88FE688A38EE498A8B4800F0EC
:1007A80061FE02218948CAFEE8AA38EE2A8AC0FEFC
:1007B80029AA00F057FEF0EE490A80FE290A80FEB9
:1007C800680A30EE490ACAFEE8AA88FE298A30EE8D
:1007D8002A0A80FE290A80FE680A11F021F90B21F5
:1007E8007A48F0EE40BA00F03DFE03217748C0FE9B
:1007F80029AA00F037FE9FED787AC0FE297AAAEE82
:1008080007BA764BC7FEE87A77EEC97A744ACAFE09
:10081800E8AA88FE688A77EEAA7A5A60C7FEA97A9B
:1008280083ED00BAC7FEE88A002C00F0B3809FED84
:100838006D7A28EE488ADFED6C7A00246BEE87AA81
:100848009FED6AAADFF8C4B1A8EE27AADFF8C0A115
:10085800B0EE6A0ADFF8BC9111F06EFBB0EE409A78
:10086800B0EE6A0A624D11F067FADFED627AF0EED7
:1008780040AA059768EEA77AFDEEE77ACDED047AEF
:10088800059BA600DFED5C6AD3E9003202EB840227
:1008980003EB840392ED008AD3ED008AF0EEC87A68
:1008A800B0EEE87AF4EEE67AF1EE10FA03D5F0EE5F
:1008B800477AB0EE688ADBF800304FF49650049A15
:1008C800C7FE877A4D4F0AEB830E991ADFF848C1A5
:1008D8005A1C07EB83030144CEED008A83ED008A9E
:1008E800F4EEE97A8CFB013E01348CFB023CCB1719
:1008F800F1EE10FAC3EB6E2300FB13134FEAE2711B
:1009080077FEA99AC1EB6C2C06A900FB1C22334880
:10091800CBF800200AEB830207EB830312681B68FD
:10092800069207AA079309AB009308AB00F03CFABC
:10093800F7EE007A9DED087A99ED006A77EECA7AAB
:10094800DDED095AD5ED006AD8F8003027EE877A30
:1009580067EEA57A3344A6EE0A7AE6EE8A7A67EE5F
:100968002A6A89ED007AC5ED007AF0EE667AE9EE3A
:10097800287AC3ED007AD5ED007AD8F804306AEE0B
:10098800A77A3344E8EE097AC3ED007A039BA342C1
:100998007FF476AF1A4BF1EE047ADFED1A6A93ED25
:1009A800007A194AF4EEC79AF1EE10FA79FE879A9E
:1009B80069EEA69A69EEA77AC3ED009AC2ED007AAD
:1009C8000BB0BDEC088BBDE8F08F00BF3CA506243A
:1009D800000000009A99993EAAF1323FF899002444
:1009E80000A08C46DB0FC93F02BC753FBADA7A3FDC
:1009F800EC030024000096456F12833AF8030024A4
:100A0800E4030024EE7C7F3FE8030024F403002481
:100A1800F84E0024F0030024B5814E1B10B5204881
:100A280000F05CFB4FF4964200211E4811F0FEFBDB
:100A38004FF4964200211C4811F0F8FB0321184896
:100A480000F0D4FC0421164800F0A6FC144800F07D
:100A5800F7FC164800F040F9144C154A154B164996
:100A68000F482260636000F093FC6420134C04F08C
:100A7800B5F89FED130A0121094800F0F9FC9FED34
:100A8800100A0221064800F0F3FC94ED000A022146
:100A9800034800F0EDFC012004F0A0F8F5E700BFE2
:100AA8003CA50624F84E0024F8030024F8990024F5
:100AB8009A99593F00A08C4619070490E80300242E
:100AC800000000000A4B00224FF60B711A629A626E
:100AD800A3F8B011C3F8BC21A3F8C811C3F8D421F6
:100AE800C3E90322C3E96D22C3E97322704700BF3B
:100AF8003CA506248B6943F6095CD0ED055AB6EE91
:100B0800004B002B91ED037A9FED355AB8BF03F5E2
:100B18008033F8EEC76A91ED027A0CFB03F3B8EE66
:100B2800C77A01331FFA83FC1B042E4BA6EE857A85
:100B380048BFACF5803CC1F818C003EB021CDCEDE3
:100B4800027A85EEA76AD1ED007AF8EEE77A77EEB9
:100B5800C77AF5EEC07AF1EE10FAB7EEC66A36EE4D
:100B6800046BBDEEC66B81ED076A0AD591ED017A7B
:100B7800B8EEC77A77EE877AF5EEC07AF1EE10FA1A
:100B8800F8D4C7EEA56AD1ED067A03EB0213DFEDC0
:100B9800162A90ED033AD3ED014A93ED005AF8EE88
:100BA800E77ADFED123AB8EEC66AB7EE007A67EE7A
:100BB800A47AB6EE004B67EEA27AA3EE275A76EE39
:100BC800C57AC7EE866AA5EEA67A27EE237AB7EE2F
:100BD800C77A37EE047BBDEEC77B81ED047A704798
:100BE8000000803120260590000000380000804D6C
:100BF80038B5354BB7EE020BB6EE005B90ED053A13
:100C080003EB02139FED311A90ED032A0025D3ED73
:100C1800003AD3ED012AB7EEE37A93ED036ADFEDEC
:100C28002C1AB7EEC66A2DED028BB7EEE28A4D613B
:100C380036EE056B0D60A8EE007BBDEEC66B9FED32
:100C4800204BF8EEC66A81ED066AB7EEC77B66EE02
:100C5800A26A27EE037A66EE816AB7EEC77AE2EEF9
:100C6800263A37EE047BBDEEC72BB8EEC27A81ED8B
:100C7800012AA3EE637AFDEEC77AF8EEE76AC1EDC2
:100C8800027A37EE667A27EE217AB7EEC77A37EE20
:100C9800057BBDEEC77B81ED037AFFF72BFF0023B1
:100CA8000B6212EE103AAB4205DD0C469A0029465B
:100CB800606A11F0BBFA0020BDEC028B38BD00BFA2
:100CC8000000000000803040202605900000003819
:100CD8000000804D000000002DE9F8432E4907462A
:100CE8004FF07E5200232D48002607F12405DFF837
:100CF800B480344607F5B2792DED028B7960012175
:100D0800B0EE408A87ED020A87ED050A3860FA607E
:100D18003B61BA61FB6139621CE0424698ED016AA9
:100D280008F1100892ED007AB7EEC66AB7EEC77AF6
:100D3800A6EE047BB7EEC77B27EE087AB7EEC77A34
:100D480037EE057BBDEEC77B17EE102A06EB820651
:100D58009E4216DC09EB86032246013429466B6263
:100D68003846FFF745FF082CB7EE024B0C4B05F150
:100D780028059FED075BD0D10020BDEC028BBDE8B4
:100D8800F883BDEC028B0120BDE8F883AFF3008047
:100D9800000000000080304000401C46EC51783FC5
:100DA8007882010020260590F0B5046A83B0002CF3
:100DB80040F32081D0ED017A1F4690ED077A0E4668
:100DC8000546F4EE477AF1EE10FA40F0A88090ED6F
:100DD800061A2C46DFED907A05F5A0702B4693EDA8
:100DE800117A2833984277EE877AF8D1B5EE007AEF
:100DF80092ED000AD6ED000A00229FED872AA7EEA1
:100E0800870AE7EE870AF0EE421A616A12F0010ECD
:100E1800A36A01F1010694ED117AA06C40FE807A74
:100E2800D4F830C09E4277EEC77A00EB8101A8BFA4
:100E3800F61ABCF1805FC1ED007AE16A666206DBF2
:100E48002CF0704601EB2C71B446C4E90B1699429C
:100E580001DBC91AE162BFEE007A05EE10CAF7EEAF
:100E6800005A0029BAEEC25AB0EE476AF6EE004AB6
:100E780075EE255AA5EE056AF0EE087AA5EEA47A75
:100E88009FED633BB7EEC66A26EE036BB7EEC66B03
:100E980066EE277A77EE466AF0EE673A77EEC57A1D
:100EA800D5EEA43A67DD9E1E8E4240F38380002370
:100EB800CB1800EB830353ED012AD3ED005A93EDD1
:100EC800013A93ED024A65EEA77A94ED117AD5EDD1
:100ED800004A636BE2EEA67AF0EE656A6344236328
:100EE800236CE3EE237AE4EE067AE7EE856AF0EE09
:100EF800477AE4EEE67A67EE817AE4EEA67AC4ED04
:100F0800117ABEF1000F2ED0013B32EE272A002BBA
:100F1800236451DD0132082A56D0283475E79FED45
:100F28003F7AC0ED077A67EE877A90ED050A00925E
:100F380087EE800A11F000F8009AB0EE001AFFEE72
:100F4800007A31EE401AE1EE017AF5EE407AB0EE21
:100F5800670AF1EE10FA50D4F1EEC07A31EE671A52
:100F680085ED061A35E7013B71EEA71A7345236430
:100F780038DD0132D1E701395E18711C8B4200EB74
:100F88008606D8BFC91AD6ED002A00EB81060131C2
:100F98008B42D6ED005AD8BFC91A00EB8106013141
:100FA8008B4296ED003AD8BFC91A00EB810090ED4C
:100FB800004A88E74E1EE1E704F124012846FFF7BE
:100FC80099FD0132082AA8D1DFED157A0020089B87
:100FD80061EEA71A22EE272AC7ED001A83ED002A30
:100FE80003B0F0BD04F124012846FFF783FD28343F
:100FF80001320AE7012003B0F0BD01928DED001A1D
:1010080011F0E8F8019AF0EE407A9DED001AA5E794
:10101800555555555555C53F00000000DB0FC940D3
:101028003333B33E002953D04B1E042BF0B5D0E91F
:1010380000C64FEA410E3BD9264D0CEB410406EBA6
:10104800410032462F1D6346BC4538BFA5422CBF20
:1010580001240024BE4238BF85422CBF0120002055
:10106800044225D0A6EB0C00022821D035F80C79D3
:101078004FF0000E4C08704667F30F0E0CEB84041B
:1010880067F31F4EEF8967F30F0067F31F4043F8BC
:1010980004EBA34242F8040BF9D1CB0707D5AB897F
:1010A80021F001012CF81130EB8926F81130F0BD40
:1010B8000CEB0E01B31EACF1020C074D0239AA89E4
:1010C8002CF8022F6145EA8923F8022FF7D1F0BDE9
:1010D800704700BF38A706242CA706242DE9F04343
:1010E80040F201139F4A012706462DED028BDFB01F
:1010F800C0F8EC21ADF82430002308978DF826308D
:1011080003F006FF044603F06BFD08A90546002816
:1011180040F0FD80002C00F0FA8030468DF82670F3
:1011280003F07CFE072C40F0FD800DF1A0090DF1C5
:1011380078088D4A06AF0024C8F8042002F100722E
:101148000323012502F5407241463846C8F810309D
:10115800C8F808204FF44172C8F8004005AFC8F835
:101168001840C8F824400694C8F81450A8F80C2071
:10117800C8E9075503F014FB10220EA907A88DF83B
:1011880048207A4A0E950F920794CDE9105402F040
:10119800CFFC079906F120004C4600F0C3F9032361
:1011A800069A0AA90B934FF07E5306F110000C9390
:1011B8000D9330230A9301F09BFA06F1100001F019
:1011C800E3FA06F11000B0EE408A01F0CBFAD0ED58
:1011D800007A0DF1600CDFF8B4E1F8EE677A654645
:1011E800BEE80F0088EE277AACE80F009EE80300FF
:1011F8008CE8030086ED7A7A35F8023B2046022215
:1012080012343B80396801F0F7FBA845F4D106F1A8
:101218001407002406F1300504230C2249463846F9
:1012280001F0FCFBE1B23846013401F003FE96ED13
:101238007A0A01462846203501F04EFB082CF1D1E8
:1012480006F598759FED4A8AE1B2384601F0F2FD3D
:10125800002301340146F0EE480A284696ED7A0A42
:101268001A4601F00BFB0C2C05F12005ECD1414B83
:10127800304640F82C3F02F00DFA40F606510122A4
:1012880006F5D870ADF80C10039901F0A3FB40F6F1
:101298000661012206F5E470ADF81010049901F01A
:1012A80099FB354B06F5F070C6F8E03102F0F2F91B
:1012B800324B06F5F270C6F8E43102F0EBF901237F
:1012C800D6F8EC0113A9CDE9153302231030149395
:1012D800002317934BF68033139301F0F3FF38463E
:1012E80001F094FDD6F8EC41237D04F110056BBBA9
:1012F8002846234D2368D4E90112009502F060F8CE
:10130800012323755FB0BDEC028BBDE8F083304646
:1013180003F084FDF5B106F1080000F001FA072C8E
:101328003FF403AF174B0DF1A0090121164A28938A
:1013380003F17D43ADF8AC1006F10C0003F58133E1
:101348004946CDE9292302F04FFEF0E6284602F08F
:1013580069F8CDE7002C7FF4E5AE06F1080000F04F
:10136800DFF9DFE72CA7062404020404010A010BB5
:101378006F12033B02070100020E0100020D01007B
:101388002D1004900508050905070506D4250590C4
:10139800103001F041BA00BF70B5054610302DED90
:1013A800028B01F0E3F905F1100001F0EDF905F108
:1013B8001000B0EE408A01F0D5F9D0ED007A05F1C1
:1013C800300405F5D876F8EE677A88EE270A85EDB9
:1013D8007A0A01E095ED7A0A2046203401F0D2FA23
:1013E800B442F7D1BDEC028B70BD00BF70B50546A5
:1013F80010302DED028B01F0CBF905F1100001F052
:10140800C3F905F11000B0EE408A01F0ABF9D0ED58
:10141800007A05F1300405F5D876F8EE677A88EE9B
:10142800270A85ED7A0A01E095ED7A0A20462034EC
:1014380001F0A8FAB442F7D1BDEC028B70BD00BF31
:10144800103001F0A1B900BF38B500F1300400F543
:10145800D8752046203401F071FAAC42F9D138BD74
:10146800704700BF00EB411090ED0F0A704700BFB6
:101478000129D0F8EC211ED931F0020317D19FEDD4
:101488001C7ADFED1C7A20EE070AB4EEE70AF1EECB
:1014980010FA0DDCDFED187AF4EEC07AF1EE10FAEE
:1014A80077FE807AFCEEE77A17EE903AD3817047A0
:1014B80040F6FF73FAE7DFED0E7A9FED0E7A60EEE5
:1014C800277AF4EEC77AF1EE10FA0DDC9FED0A7A6E
:1014D800B4EEE77AF1EE10FA37FE277AFCEEC77A17
:1014E80017EE903A9381C7E740F6FF73FAE700BF1B
:1014F80000C04C4400F07F4500000000074900226E
:10150800074B4FF0300C01F1600059601A611A75F1
:10151800C3F800C0C3E90202704700BF00000030F2
:101528002CA70624F0B587B08C2300220125FA26C3
:1015380005AF0160194603712B468DF8142040222F
:1015480000970446CDE9015602F08CFB002840F0D4
:101558009E809DF814304022204603F07F038DF8CA
:1015680014308DF817300DF11703CDE901560093AB
:101578002B46217902F09CFB002840F0888004204B
:1015880003F02CFB00972B4640222046CDE901565C
:10159800217902F067FB002879D10DF11703402269
:1015A800204600939DF8143003F0BF03CDE901569F
:1015B8008DF814308DF817302B46217902F078FB1E
:1015C800002864D1042003F009FB0DF11503432220
:1015D800204600932B46CDE90156217902F042FBC3
:1015E800002854D10DF116034822204600932B46BB
:1015F800CDE90156217902F035FB002847D10DF1DC
:1016080017034322204600939DF8153043F0010349
:101618008DF815308DF817309DF8163043F001031A
:10162800CDE901568DF816302B46217902F040FBA2
:1016380068BB0DF117034822204600939DF8163029
:10164800CDE901568DF817302B46217902F030FB91
:10165800E8B900972B4640222046CDE9015621796A
:1016680002F000FB98B99DF814202B4601952046FE
:1016780002F0CF050DF1170202960092402221795F
:101688008DF814508DF8175002F012FB00B10120AC
:1016980007B0F0BD70B586B000240125102602A958
:1016A8004FF480521C480194CDE90256CDE9045408
:1016B8000BF0BEF8642003F07BFE022302A94FF46E
:1016C8008052154802930594CDE903650BF0B0F8F4
:1016D800042302A94FF480520F480396CDE904343D
:1016E800032302930BF0A4F840F23223042202A948
:1016F8000948019310230495CDE90223019B4FF477
:10170800805205930BF094F840F6060102480BF05E
:10171800B1F8204606B070BD4CA7062400000000B2
:1017280030B51F4B89B00822DFF878C000214FF48C
:1017380000641A614FF0020E03920A22C3F804C033
:101748004FF0200C0692402205469960032019624A
:1017580010215C620124C3E905C24FF4C072DC6049
:10176800DA6107229FED0C7BCDE900E20422CDE986
:1017780004016946181D029283ED0A7B0BF02EF8CE
:1017880028B9284609B0BDE83040FFF783BF204696
:1017980009B030BDAFF30080001000000000000069
:1017A80048A70624404100525E4A0023F0B5146859
:1017B8008FB00A93002C40F0B2805B4B01210326C6
:1017C8000C2511600227D3F8D420584842F48052DF
:1017D800C3F8D420D3F8D42002F480520092009A9F
:1017E800D3F8E02042F01002C3F8E020D3F8E0205C
:1017F80002F010020192019AD3F8E02042F0400270
:10180800C3F8E020D3F8E02002F040020292029AE6
:10181800D3F8E02042F00802C3F8E020D3F8E02033
:1018280002F008020392039AD3F8E02042F480728F
:10183800C3F8E020D3F8E02002F480720492049AFE
:10184800D3F8E02042F08002C3F8E020D3F8E0208B
:1018580002F080020592059AD3F8E02042F02002B7
:10186800C3F8E020D3F8E02002F020020692069A9E
:10187800D3F8E02042F00402C3F8E0204FF6837268
:10188800D3F8E0300B9603F004030C95079302237A
:10189800079908A9CDE9082305F032FF48F2371364
:1018A80008A9234808930C950997CDE90A4605F03D
:1018B80027FF4CF2037308A91E480893CDE9097461
:1018C800CDE90B6505F01CFF40F2FF6308A91A4833
:1018D8000893CDE90974CDE90B6505F011FF4FF6C2
:1018E8000C7308A915480893CDE90974CDE90B656F
:1018F80005F006FF4FF63F0308A911480893CDE904
:101908000974CDE90B6505F0FBFE202308A90B48F7
:1019180009970C950893CDE90A4605F0F1FE0FB03A
:10192800F0BD00BF44A70624004402580010025826
:1019380000180258000C025800200258001C0258D7
:10194800001402582DE9F04F8BB08346C8480D4665
:1019580000AF144603F022F8C64BD3E90621002A4B
:1019680000F00A82002940F09280D3F80480082110
:101978004FF002094269B8F1000F00F09280A1000F
:10198800EA46012A01F1070121F00701ADEB010D3B
:101998006846ADEB010D694600F0F581022A00F0BA
:1019A8007382002A40F0E581002C00F0E281D3ED3B
:1019B8000C6A86469FEDB07A0BF1040C5E4636F948
:1019C80022900EF1080E07EE909A3CF9229002320E
:1019D800F8EEE77A944267EE877A67EEA67A4EEDDC
:1019E800027A07EE909AF8EEE77A67EE877A67EE62
:1019F800A67A4EED017AE2D822467962C0479D4B1D
:101A08000022796A93ED0D6A281DDFED9C6A9C4ED1
:101A18009FED9C7ADFED9C5AD1ED007A334666EE55
:101A2800277AF4EEE67AF1EE10FA0CD9F4EEC77ADA
:101A3800F1EE10FA67FE277A67EEA57AFDEEE77AEF
:101A480017EE903A1BB2D1ED017A45F8223066EED6
:101A5800277AF4EEE67AF1EE10FA40F20682F4EE16
:101A6800C77A0831F1EE10FA67FE277A67EEA57A91
:101A7800FDEEE77A17EE903A1BB240F822300232B8
:101A88009442C9D8D5462C37BD46BDE8F08FD3F867
:101A9800048010214FF004094269B8F1000F7FF467
:101AA8006EAF1868F8610028EDD07848C7F818D0EC
:101AB800C7E9081202F0E0FFB9F1020F6D4BF860B8
:101AC800D7E9081200F069826846C4F35D0C012A60
:101AD800A0EBC40085464FEA5400EE46B860AEEB72
:101AE800C40085460EEB8C006E46ADEB010DC7E9D0
:101AF80000E006EB8C003E616E46ADEB010D7861AF
:101B08000EEB8C003146C6F800E0706000EB8C06E6
:101B1800796278698E60396900EB8C0A06EB8C0073
:101B2800C7F820D0009179693861CDE9011A0AEB2C
:101B38008C010391796AC86000F03484022A00F0AD
:101B48002F83002A40F01382002C00F09984B9F109
:101B5800020F00F09B84601EFE683A610BF1040CD2
:101B68004008DFED456A01304FEA800A586A00EB09
:101B780086007E6AB268F6687A61021DD7F814801A
:101B8800C7F81490B1465E46AB46D7E900E17A60E3
:101B98003A693C616446D7F804C036F9125093EDAF
:101BA8000C6A07EE905A34F91250F8EEE77A67EEAD
:101BB800A67A67EE867AEEEC017A07EE905A30F94B
:101BC8001250F8EEE77A07EE105A3CF9125067EE19
:101BD800A67AB8EEC77A67EE867A27EE267AE1EC1F
:101BE800017A07EE905A27EE067A08EB0205F8EE1E
:101BF800E77A85ED007A09EB020567EEA67A93EDA0
:101C08000C7A043267EE877A5245C5ED007AC4D162
:101C1800D7F814905D463C69BA68FB69D7E90810A3
:101C28009847144B3A6AB9F1020F93ED0D7AD2E94D
:101C3800006100F0798404F1FF3CDB6AFA683446FD
:101C48004FEA5C0CDFED0D6A03EB82093B6A0CF18D
:101C5800010C9FED0C6ADFED0C5A09F1040E4FEAF6
:101C68008C0C0022281D064ED3E902839A4675E0A3
:101C780098A7062480A706240000003804FF7FBF29
:101C88000280FFFF04FF7F3F00FEFF469CA706245B
:101C980000000034F4EEC67AF1EE10FA66FE277AF8
:101CA80067EEA57AFDEEE77A17EE903A1BB2D1ED12
:101CB800007A45F8123067EE277AF4EEE67AF1EE0C
:101CC80010FA40F26881F4EEC67AF1EE10FA66FE78
:101CD800277A67EEA57AFDEEE77A17EE903A1BB2FF
:101CE80040F8123008EB0203D3ED007A67EE277A4A
:101CF800F4EEE67AF1EE10FA40F24B81F4EEC67A91
:101D0800F1EE10FA66FE277A67EEA57AFDEEE77A1D
:101D180017EE903A1BB249F812300AEB0203D3EDE2
:101D2800007A67EE277AF4EEE67AF1EE10FA40F2DE
:101D38002981F4EEC67AF1EE10FA66FE277A67EE8C
:101D4800A57AFDEEE77A17EE903A1BB24EF81230FC
:101D58000432624500F0108104340431D4ED007A75
:101D680067EE277AF4EEE67AF1EE10FA92D8334667
:101D78009DE72246C04785E600297FF4F6AD2C375B
:101D8800BD46BDE8F08F002CF3D0D3ED0C6A814638
:101D98001FED417A4FF0000E0BF1040C5E4656F829
:101DA8002E2009F1080982F40002A2F5000207EECC
:101DB800902A5CF82E200EF1020EF8EEE77A82F4F3
:101DC80000027445A2F5000267EE877A67EEA67AEC
:101DD80049ED027A07EE902AF8EEE77A67EE877AFD
:101DE80067EEA67A49ED017AD9D822467962C047CA
:101DF800AC4B0022796A93ED0D6A281DDFEDAA6AC3
:101E0800AA4E9FEDAB7AD1ED007A334666EE277A7B
:101E1800F4EEE67AF1EE10FA0BD9F4EEC77AF1EEA9
:101E280010FA67FE277AF0EE675AFEEEE45A15EECE
:101E3800903AD1ED017A45F8223066EE277AF4EE31
:101E4800E67AF1EE10FA18D9F4EEC77A0831F1EE15
:101E580010FA67FE277AFEEEE47A17EE903A40F819
:101E6800223002329442CED80CE640F82260023288
:101E7800083194423FF6D0AD04E640F822600232C1
:101E880008319442BFD8FDE5002C3FF472AFD3ED82
:101E98000C6A86469FED897A00220BF1040CE9460C
:101EA8005E4656F822100EF1080E07EE901A5CF8FE
:101EB80022100232F8EEE77A944267EE877A67EEEC
:101EC800A67A4EED027A07EE901AF8EEE77A67EEF8
:101ED800877A67EEA67A4EED017AE2D8494622461D
:101EE800C7F82490C0476F4B0022796A93ED0D6ABA
:101EF800281DDFED6D6A6F4E9FED6D7AD1ED007A8A
:101F0800334666EE277AF4EEE67AF1EE10FA0BD94C
:101F1800F4EEC77AF1EE10FA67FE277AF0EE675A08
:101F2800FEEEE05A15EE903AD1ED017A45F82230EE
:101F380066EE277AF4EEE67AF1EE10FA10D9F4EEAE
:101F4800C77A0831F1EE10FA67FE277AFEEEE07ADA
:101F580017EE903A40F822300232A242CED391E5F1
:101F680040F82260023208319442C7D88AE5BA683C
:101F7800FB69D7E908109847D7F818D02C37BD4621
:101F8800BDE8F08F4EF81260043262457FF4E4AE8B
:101F9800F2E73346BFE63346A2E6A000012A4FEA3D
:101FA800540E00F1070020F0070CADEB0C0D68464D
:101FB800ADEB0C0DC7F808E0EC4600EB8E06ADEB78
:101FC800010DC7E90006C7F824D06E46ADEB010D38
:101FD80031463060CDF800C000EB8E060CEB8E0C5D
:101FE800C7F820D04E60CDF804C07FF4A7AD002C10
:101FF80000F04682D3ED0C6A024679680BF1040CB6
:102008009FED2D7A5E4656F8280080F40000A0F572
:10201800000007EE900A5CF8280008F10208F8EEC4
:10202800E77A80F400004445A0F5000067EE877A5F
:1020380067EEA67AE2EC017A07EE900AF8EEE77A04
:1020480067EE877A67EEA67AE1EC017ADBD872460A
:10205800FB69D7E908109847124B396AB9F1020FA2
:1020680093ED0D7AD1E9002100F0F98204F1FF3CEB
:10207800DB6AF86814464FEA5C0CDFED0B6A03EB89
:1020880080093B6A0CF1010C9FED096A09F1040E05
:10209800281D4FEA8C0C054ED3E902839A4600238B
:1020A80069E000BF80A7062404FF7FBF7E0080FF91
:1020B80004FF7F3F007E00800000003400000030F5
:1020C800F4EEC67AF1EE10FA66FE277AF0EE675A59
:1020D800FEEEE45A15EE902AD1ED007A45F8132069
:1020E80067EE277AF4EEE67AF1EE10FA56D9F4EEB6
:1020F800C67AF1EE10FA66FE277AF0EE675AFEEE1F
:10210800E45A15EE902A40F8132008EB0302D2EDAA
:10211800007A67EE277AF4EEE67AF1EE10FA3BD908
:10212800F4EEC67AF1EE10FA66FE277AF0EE675AF8
:10213800FEEEE45A15EE902A49F813200AEB030242
:10214800D2ED007A67EE277AF4EEE67AF1EE10FA2D
:102158001CD9F4EEC67AF1EE10FA66FE277AFEEE86
:10216800E47A17EE902A4EF81320043363453FF4BF
:1021780003AF04340431D4ED007A67EE277AF4EE25
:10218800E67AF1EE10FA9BD83246A5E74EF81360CE
:1021980004336345EDD1EFE63246CDE73246B2E788
:1021A800002C00F06D81B9F1020F00F09581621EDC
:1021B800FE680BF1040C38685208C7F800905FED10
:1021C800416A01324FEA820A5A6A02EB86087A6A41
:1021D80008F10401D2E9026239617A61B646D7F89A
:1021E80014905E467C61002264467968AB46D7F855
:1021F80010C056F8125093ED0C6A07EE905A54F836
:102208001250F8EEE77A67EEA67A67EE867AE0EC87
:10221800017A07EE905A58F81250F8EEE77A67EE0E
:10222800A67A67EE867AE1EC017A07EE905A5CF8B6
:102238001250B8EEE77A07EE905A0EEB020527EE39
:10224800267AF8EEE77A27EE067A67EEA67A85ED23
:10225800007A09EB020593ED0C7A043267EE877A6F
:102268009245C5ED007AC4D1D7F800905D467C69E7
:10227800BA68FB69D7E908109847CF4B396AB9F1B2
:10228800020F93ED0D7AD1E9002100F0A78104F146
:10229800FF3CDB6AF86814464FEA5C0CDFEDCD6A58
:1022A80003EB80093B6A0CF1010C9FEDCB6A09F145
:1022B800040E281D4FEA8C0CC04ED3E902839A46BF
:1022C80000235AE0F4EEC67AF1EE10FA66FE277A99
:1022D800F0EE675AFEEEE05A15EE902AD1ED007A3C
:1022E80045F8132067EE277AF4EEE67AF1EE10FA55
:1022F80056D9F4EEC67AF1EE10FA66FE277AF0EEB9
:10230800675AFEEEE05A15EE902A40F8132008EBC3
:102318000302D2ED007A67EE277AF4EEE67AF1EE60
:1023280010FA3BD9F4EEC67AF1EE10FA66FE277A77
:10233800F0EE675AFEEEE05A15EE902A49F813209F
:102348000AEB0302D2ED007A67EE277AF4EEE67A1A
:10235800F1EE10FA1CD9F4EEC67AF1EE10FA66FE28
:10236800277AFEEEE07A17EE902A4EF8132004330F
:1023780063453FF401AE04340431D4ED007A67EECE
:10238800277AF4EEE67AF1EE10FA9BD83246A5E702
:102398004EF8136004336345EDD1EDE53246CDE7E1
:1023A8003246B2E7002C6BD0611EF868F24642460E
:1023B80049080BF1040CC7F800900131DFED806A81
:1023C800D7F8109089007961596A01EB800E304680
:1023D8005E46AB460EF104085546A2467C6856F8A0
:1023E800121093ED0C6A81F40001A1F5000107EECB
:1023F800901A5CF81210F8EEE77A81F40001A1F562
:10240800000167EEA67A67EE867AE5EC017A07EEB8
:10241800901A5EF81210F8EEE77A81F4000167EE80
:10242800A67AA1F5000167EE867AE4EC017A07EE58
:10243800901A58F81210B8EEE77A81F40001A1F565
:10244800000127EE267A07EE901A811827EE067A01
:10245800F8EEE77A81ED007A09EB020167EEA67AD9
:1024680093ED0C7A043267EE877AC1ED007A7969C8
:102478009142B4D1D7F800905D465446BA68E7E572
:102488002246FB69D7E90810984775E5D3ED0C6A31
:102498000BF1040C9FED4B7A5E46D7E9000136F943
:1024A80022E007EE90EA3CF922E00232F8EEE77A01
:1024B800944267EE877A67EEA67AE0EC017A07EE37
:1024C80090EAF8EEE77A67EE877A67EEA67AE1ECAB
:1024D800017AE4D8FFF7A0BBD3ED0C6A00229FED88
:1024E8003A7A0BF1040C5E46AE46D7E9000156F87D
:1024F800225007EE905A5CF822500232F8EEE77A42
:10250800944267EE877A67EEA67AE0EC017A07EEE6
:10251800905AF8EEE77A67EE877A67EEA67AE1ECEA
:10252800017AE4D87546A3E60022DFED2A6A9FED1A
:102538002A6A281DDFED255ADFF894C0D6ED007A07
:10254800634667EE277AF4EEE67AF1EE10FA0CD9D4
:10255800F4EEC67AF1EE10FA66FE277A67EEA57AEF
:10256800FDEEE77A17EE903A1BB2D1ED007A043609
:10257800043145F8223067EE277AF4EEE67AF1EE78
:1025880010FA12D9F4EEC67AF1EE10FA66FE277A3E
:1025980067EEA57AFDEEE77A17EE903A1BB240F89F
:1025A800223002329442C9D8E6E440F822C002320E
:1025B8009442C3D8E0E400BF80A70624007E0080D0
:1025C80000000034000000380000003000FEFF4624
:1025D8000280FFFF04FF7FBF04FF7F3F00235FED02
:1025E800036A1FED036A281DDFF8FCC0D2ED007AEC
:1025F800664667EE277AF4EEE67AF1EE10FA0BD922
:10260800F4EEC67AF1EE10FA66FE277AF0EE675A13
:10261800FEEEE05A15EE906AD1ED007A04320431EC
:1026280045F8236067EE277AF4EEE67AF1EE10FAC1
:102638000FD9F4EEC67AF1EE10FA66FE277AFEEEAE
:10264800E07A17EE906A40F8236002339C42CDD8B6
:1026580092E440F823C002339C42C7D88CE400239C
:10266800DFED1F6A9FED1F6A281DDFF880C0D2EDDD
:10267800007A664667EE277AF4EEE67AF1EE10FA0B
:102688000BD9F4EEC67AF1EE10FA66FE277AF0EE70
:10269800675AFEEEE45A15EE906AD1ED007A0432DC
:1026A800043145F8236067EE277AF4EEE67AF1EE16
:1026B80010FA0FD9F4EEC67AF1EE10FA66FE277A10
:1026C800FEEEE47A17EE906A40F8236002339C42EB
:1026D800CDD851E440F823C002339C42C7D84BE41C
:1026E80004FF7FBF04FF7F3F007E00807E0080FFE5
:1026F80010B5194C84B09646046004F1080C0FC953
:102708008CE80F00D4ED047AF5EEC07A8DE80F005E
:10271800F1EE10FA1CDDB7EE006A94ED057A27EEAB
:10272800277AC6EE276A84ED0D7AC4ED0C6ABEF1ED
:10273800000F0DD0204640F818EF02F02FF9074996
:1027480003690020064A2162A262E36004B010BD5A
:10275800012004B010BD00BF80A70624C0200030AF
:10276800C000003000680830704700BFB1F5807FB6
:1027780003680A4628BF4FF48072B1F5807F9A60DB
:1027880094BF0020012070470068183002F062B939
:1027980070B504688AB0A369E160D3B104F1180088
:1027A80002F0FCF8E2688446EE461546BCE80F00E5
:1027B800AEE80F00BCE80F00AEE80F009CE803008D
:1027C8008EE80300694604F11800049501F0E8FF5B
:1027D800F0B9E369CBB104F11C05284602F0DEF834
:1027E8008446EE46E468BCE80F00AEE80F00BCE89B
:1027F8000F00AEE80F009CE803008EE8030069466E
:102808002846049401F0CCFF10B900200AB070BD2E
:1028180001200AB070BD00BF30B5046883B00D4612
:10282800E3694BB1A3680020E26A616A9B000090EB
:1028380004F11C0002F0B4F8A3680748A26A9B00E0
:10284800216A009004F1180002F0AAF80020C4E9F7
:10285800005003B030BD00BF4D190490064B302026
:1028680003214FF07E52C3E90201002000211A61C2
:102878005A61C3E90601704780A70624F6EE006A8C
:102888009FED146A20EE207A80ED020AF7EE007AB6
:1028980080ED036A016027EE267AC7EE876AF4EEB8
:1028A800E76AF1EE10FA05DCB4EEE66AF1EE10FA2A
:1028B80076FE267A4FF07E514FF0000C0276002209
:1028C800C0ED017AC0F814C0016143768276C0ED8C
:1028D800070A704700000000DFED167AF6EE006A7E
:1028E800B7EE007A9FED146A60EE277A80ED020A4F
:1028F80080ED036A016067EEA67AC7EE276AF4EEF8
:10290800C76AF1EE10FA05DCB4EEE66AF1EE10FAE9
:1029180036FE267A4FF0804C4FF07C514FF480728F
:10292800012380ED017AC0F810C0416102838376EB
:10293800704700BF6F12033B000000000268037E6F
:10294800128807EE902AFBEEC87A1BB1B7EE007A20
:1029580077EE677AD0ED056A90ED047A77EEE67A3D
:10296800437E67EE877A0BB1F1EE677A90ED030A42
:1029780090ED017A77EEC07AA7EE270A80ED030A78
:10298800704700BF837E80ED020ADBB9D0ED077A7D
:1029980027EE800AB6EE007AF7EE007A20EE070AF4
:1029A80087EE807AB4EEE77AF1EE10FA07DCDFED15
:1029B800077AF4EEC77AF1EE10FA77FE877AC0ED5F
:1029C800017A7047DFED027AE2E700BF00000000FD
:1029D8006F12033B10B584B000231446ADF80C10F9
:1029E8001A4600930399029000F042FD02980023D2
:1029F8008475838204B010BD00B583B04FF0000E1B
:102A08004FF0030C4274ADF80410BDF8043080F8A0
:102A180010E0A0F802C0038003B000BD2DE9F04F1C
:102A28004FF00008DFF8F4928FB0B74C03700646F9
:102A3800B64B174642600D46202241464846C4F828
:102A48006831C4F86491CDE90388CDE90588CDE9FA
:102A58000788CDE90988CDE90B880FF0E7FB20222C
:102A6800414604F5A170C4F83181C4F83581C4F831
:102A78003981C4F83D810FF0D9FB84F8307173684F
:102A880084F84882002B00F084814346484604F5C8
:102A9800987E05F1100AC446019708E04FF001013D
:102AA800624503F1120384F8481264D90230E91828
:102AB80055F803B0E2180CF1010CCF68D1F8049076
:102AC800D1F8088044F803B0D7604FF00007C2F887
:102AD8000490C2F80880098A078011821AF8031046
:102AE8000EF8011F72680029D8D1624503F112035C
:102AF800DCD8019F94F84832FFB2002B3ED1012167
:102B0800032332780020C4F89831002384F8811117
:102B1800C4F874317E4984F8803184F88831C4F867
:102B28008471C4E967334FF48023C4E95B13082137
:102B38000123C4E95E310021C4E964019AB100208F
:102B48000121013A84F8A431C4E96C01082A0CD89F
:102B5800DFE812F0FE00F900F400EF00EA00D5000B
:102B6800CF00C800C10084F8A4216A4803F06EF8B9
:102B780030B1FFBEFEE7019F0021FFB20123C0E78D
:102B8800039003A9634803F0F1F9002840F0A180FD
:102B9800042340F2FF720B90CDE9092394F83031F9
:102BA800002B4BD0DFF878818146DFF878A14FF011
:102BB800070BA8F58E756B7B072B07D8DFE803F0AA
:102BC8008386807A777D4104CDF820B0281F00F0F5
:102BD80061FD2B7B042B3CDC022B00F3D28000F040
:102BE800CC80002388F8003015F8043C002B42D034
:102BF800022B00F0B280012B07D115F8033C012B02
:102C080000F0CB80002B00F0D6800023069306A9A5
:102C1800DAF800303F48079302F02EFC002840F015
:102C2800C08009F1010994F830210AF1040A08F179
:102C380001085FFA89F312359A42BCD80FB0BDE893
:102C4800F08F0623281F089300F024FD2B7B042B0C
:102C5800C2DD032388F800302F46002638460136A7
:102C680000F018FD98F800300437B342F6DC15F888
:102C7800043C002BBCD115F8032C062A00F08580F3
:102C8800072A00F09480022A00F09780032A00F0B7
:102C98009680002A00F09580012A00F09480042A8A
:102CA80000F09380052A1C4A08BF1346AEE70423A8
:102CB80008938BE70323089388E70523089385E7A0
:102CC8000223089382E7002308937FE701230893F0
:102CD8007CE7FFBEFEE740F2FF324FF4A073C4E981
:102CE8006A2342E740F2FF124FF49073C4E96A2363
:102CF8003BE7FF224FF48073C4E96A2335E77F225C
:102D0800E023C4E96A2330E7B8A70624004100306D
:102D18000020024024A906240000B84FC04000301B
:102D2800D8A80624A02605903F22C023C4E96A2318
:102D38001BE71F22A023C4E96A2316E70F2280237A
:102D4800C4E96A2311E707226023C4E96A230CE770
:102D580003224023C4E96A2307E715F8033C042B40
:102D680015D0052B1BD0F3B1012B1ED0022B20D080
:102D7800032B7FF44AAF164B48E7012388F800304D
:102D88006AE7022388F8003066E7124B3EE7124BE9
:102D98003CE7FFB201210323B3E6104B36E7104BA3
:102DA80034E7FFBEFEE70F4B30E70F4B2EE70F4B24
:102DB8002CE70F4B2AE70F4B28E70F4B26E70F4B63
:102DC80024E70F4B22E70F4B20E70F4B1EE700BF0E
:102DD800002090360800900C1000C0102000F0145D
:102DE800000180210004002A0008302E8000501DB8
:102DF800001060320002B0250040C03A0080F03E6A
:102E080000002143000052470000844B10B5084CD5
:102E180040F2FF724FF00111204603F049F814F810
:102E28003C2C54F8081C2046BDE8104002F07CBD3C
:102E380024A90624044BD3F8643103EB41000F297D
:102E480088BF1846704700BFB8A70624224B0268FF
:102E58009A4200D07047214A0021214BD2F8D8006D
:102E6800DFF880C040F0200000B583B0C3F8D0C1BF
:102E78004FF0090CC3E975C1C2F8D8004FF4806C53
:102E8800D2F8D80093F8482200F0200082F001021E
:102E9800019003F5E8701202C3E9771CC3F8EC212E
:102EA8004FF4006C019A4FF40052C3F8E4C1C3F820
:102EB800E821C3E97C1103F067FC094B08B1FFBEA8
:102EC800FEE703F5B67203F5E871C3F80822C3F804
:102ED800B81103B000BD00BF0020024000440258F2
:102EE800B8A7062440000240014804F0A7B800BF74
:102EF80088A90624464B02689A4200D07047F0B56C
:102F0800444C85B094F848320BB905B0F0BD94F83C
:102F18003011002951D004F5A07504F10C0704F50F
:102F28009876002215E003F001012B80A7F1080034
:102F380016F8113C0392019300F08AFC019B039A56
:102F4800012B22D894F830110132123793B29942EA
:102F580031D916F8013F0235002BF5D0D4F8643189
:102F68000021287833F812C0D4F8683103EB021333
:102F780023F810C02B8801339BB2D8B20290307866
:102F88009842D0D80B460291CFE7029B381F039294
:102F9800C3F3400100F05CFC019A029B022A039AE9
:102FA800C3F38001CED03846019200F051FC94F86A
:102FB8003011019AC8E794F8483283F001031648A3
:102FC800092100221B024FF48065C4F8D821C4F8F7
:102FD800EC314FF40053C4F8DC21C4F8E831C4E9FB
:102FE80074014FF400610D48C4E97851C4E97C22AA
:102FF80003F0CAFB08B1FFBEFEE794F83021D4F80D
:103008006411074805B0BDE8F04002F08DBC00BF70
:1030180000200240B8A706244000024088A90624E0
:1030280024A90624704700BF524B02689A4200D078
:103038007047514B514AD3F8E800D2F8481140F094
:10304800005000B585B0C3F8E800D3F8E80000F0F8
:10305800005001900198D3F8E00040F00100C3F857
:10306800E000D3F8E03003F001030293029B31F053
:10307800020340D0013901296FD9D2F84C31012B14
:103088000AD000223620114602F0F2FF362005B0A1
:103098005DF804EB03F01CB8D2F8483133F00201B4
:1030A80038D0013B012BECD80023DFF8E0C04421E5
:1030B8003348C2F89830C2F8B0304FF48063C2E9A0
:1030C80023C14021C2F89C304FF40053C2F8941039
:1030D8004FF40061C2E928134FF480714FF4803334
:1030E800C2E92A1303F050FB244A90B9244BC2F8D2
:1030F800C420D360C5E74FF48061032303A8ADF86B
:103108000C108DF80E3000F0C5FA1C4AD2F84811A0
:10311800B0E7FEE7432311629163402193614FF4C6
:103128008063D1614FF4006153624FF40053154836
:10313800C2E90A134FF480714FF48033506112488A
:10314800C2E90C1303F020FB0C4A28B90E49D2F847
:1031580048319160D264A4E7FEE74FF4A0610323ED
:1031680003A8ADF80C108DF80E3000F093FA034A5E
:1031780083E700BF007400400044025804AA0624F4
:1031880090AA06241004024018AA06242804024023
:10319800014803F053BF00BF18AA0624014803F0F2
:1031A8004DBF00BF90AA0624044808B503F00EF9E5
:1031B8000348BDE8084009F01BBD00BF04AA062467
:1031C80008AB0624134BD3F84821D3F85811022A28
:1031D80000B583B00DD01048D3F85C210840D3F86F
:1031E80064310244009213B149086846984703B015
:1031F80000BDD3F86021002AF9D00748D3F85CC194
:103208000840D3F8643184440244CDE900C2002B5D
:10321800EAD1ECE704AA0624FEFF0100104BD3F81C
:103228004821022A00B583B00CD0D3F85C11D3F83A
:103238006421009122B1D3F8581168464908904793
:1032480003B000BDD3F86021002AF9D0D3F85C118F
:10325800D3F86401CDE9001202460028EBD1EFE76C
:1032680004AA0624094BD3F84821022A0CD000B539
:10327800D3E9581283B0019122B1D3F8581101A8AB
:103288004908904703B000BD704700BF04AA062450
:103298000A4BD3F84821022A0FD0D3F8581108480E
:1032A800D3E95823084000B5024483B0019213B112
:1032B800490801A8984703B000BD704704AA06242E
:1032C800FEFF010030B58C463A4C8DB03A4D046093
:1032D80004F5A27EBCE80F00AEE80F00DCF8003071
:1032E80020462560CEF8003002F07EFF0023D4F897
:1032F8004C510393B5B9022304930022D4F85431F6
:10330800D4F848119B1A18BF0123CDE906225B00A7
:1033180031F0020205932DD00139012935D9002059
:103328000DB030BD1621012D0491E6D1234900933B
:10333800C4F80C31C4F80411C4F81431C4F81C31B1
:10334800CDE9013301F0E2FDD4F844314BF6803287
:10335800014604F58270C4F80851002B08BF1346D3
:10336800B1FBF3F3C4F8103109F0A2FAB8B10120A7
:103378000DB030BD03A90F4803F062F80028F6D15C
:10338800D4F8481101390129C9D8102203A90948DC
:1033980003F056F8003818BF01200DB030BD2022C8
:1033A8000290694604F58270009209F0D9FC002861
:1033B800A3D0DCE704AA06240074004000100040F3
:1033C80030B5046885B0D4F84C01012803D0D4F88E
:1033D8004801022823D1D4F8500115460A46089915
:1033E800B0FA80F0C4F85831C4F8641100214009DB
:1033F8000393C4E95725C5002046009502F00EFF47
:10340800D4F86021039B10212046009502F006FFA6
:1034180004F5827009F0E2FA002005B030BD012001
:1034280005B030BD0268D2F84C31012B0CD1D2F86E
:10343800483133F0020100B583B007D0013B012BBE
:103448000ED9002003B000BD01207047104601923C
:1034580002F06AFF019AD2F84831013B012BF0D8FB
:103468001021104602F060FF002003B000BD00BF2D
:1034780000B593B00180ADF80410C9B2DDF850C0B2
:103488000B29C0F80CC0C0E901233FD090F801E037
:10349800BEF10F0F3AD8022A3CD0032A04D0A2F179
:1034A8000102B2FA82F25209012B0E9205D0A3F161
:1034B8000203B3FA83F35B095B00BCF1020F0F93BD
:1034C80026D0BCF1030F23D0ACF10103B3FA83F388
:1034D8005B090A2910930ED8624B4A1E03EB81231D
:1034E8000361092A00F2AE80DFE802F09D8E7F704A
:1034F80061524334251600231A46036101230DA99E
:10350800104603FA0EF30D9304F0FAF813B000BD59
:103518006346DEE71122C7E7534B544AD3F8E0105D
:1035280041F48061C3F8E010D3F8E03003F480631D
:103538000C930C9BE2E74C4B4D4AD3F8E01041F456
:103548000071C3F8E010D3F8E03003F400730B9374
:103558000B9BD3E7444B474AD3F8E01041F4807102
:10356800C3F8E010D3F8E03003F480730A930A9BA1
:10357800C4E73D4B404AD3F8E01041F08001C3F85E
:10358800E010D3F8E03003F080030993099BB5E716
:10359800354B3A4AD3F8E01041F04001C3F8E01047
:1035A800D3F8E03003F040030893089BA6E72E4BBE
:1035B800334AD3F8E01041F02001C3F8E010D3F803
:1035C800E03003F020030793079B97E7264B2D4A2B
:1035D800D3F8E01041F01001C3F8E010D3F8E03060
:1035E80003F010030693069B88E71F4B264AD3F87F
:1035F800E01041F00801C3F8E010D3F8E03003F020
:1036080008030593059B79E7174B204AD3F8E01088
:1036180041F00401C3F8E010D3F8E03003F00403EC
:103628000493049B6AE7104B194AD3F8E01041F061
:103638000201C3F8E010D3F8E03003F0020303936B
:10364800039B5BE7084B074AD3F8E01041F0010100
:10365800C3F8E010D3F8E03003F001030293029BB3
:103668004CE700BF000002580044025800280258E6
:103678000024025800200258001C02580018025862
:103688000014025800100258000C02580008025892
:10369800000402588378022B30B504468FB039D025
:1036A800032B00F0D180A3F10102B2FA82F2520991
:1036B800E3780A92012B05D0A3F10203B3FA83F34E
:1036C8005B095B0000222046CDE90B3201F044FD86
:1036D8000546204601F048FD23780990082B13D8A9
:1036E800DFE803F02D405366798C9F051A00574B8D
:1036F800D3F8E02042F08002C3F8E020D3F8E030AD
:1037080003F080030793079B09A9284603F0F8FFF5
:103718000FB030BD1122CBE74C4B09A92846D3F88E
:10372800E02042F48072C3F8E020D3F8E03003F4DC
:1037380080730893089B03F0E3FF0FB030BD434B41
:1037480009A92846D3F8E02042F00102C3F8E02096
:10375800D3F8E03003F001030093009B03F0D0FF9F
:103768000FB030BD394B09A92846D3F8E02042F004
:103778000202C3F8E020D3F8E03003F0020301931B
:10378800019B03F0BDFF0FB030BD304B09A928469F
:10379800D3F8E02042F00402C3F8E020D3F8E03088
:1037A80003F004030293029B03F0AAFF0FB030BD9D
:1037B800264B09A92846D3F8E02042F00802C3F8AE
:1037C800E020D3F8E03003F008030393039B03F0F1
:1037D80097FF0FB030BD1D4B09A92846D3F8E0204C
:1037E80042F01002C3F8E020D3F8E03003F01003F1
:1037F8000493049B03F084FF0FB030BD134B09A959
:103808002846D3F8E02042F02002C3F8E020D3F89D
:10381800E03003F020030593059B03F071FF0FB020
:1038280030BD0A4B09A92846D3F8E02042F04002EF
:10383800C3F8E020D3F8E03003F040030693069B7A
:1038480003F05EFF0FB030BD1A4631E7004402585E
:1038580070B506460D4601F07FFC0446304601F07F
:1038680083FC2A1E0146204618BF0122BDE870408D
:1038780004F05CBA026800231221032A70B586B0EE
:103888000446CDE90113039301D804230493201DB2
:1038980001F062FC0646201D01F066FC69460090B6
:1038A800304603F02DFFA01D01F056FC0546A01D73
:1038B80001F05AFC69460090284603F021FF06B043
:1038C80070BD00BF684A0368934200B58DB029D027
:1038D800664A93425CD0664A934200F09B80654AF0
:1038E800934201D00DB000BD634B6448D3F8E0208B
:1038F80042F00202C3F8E020D3F8E02002F002020E
:103908000A920A9AFFF7B6FF5B4BD3F8F42042F00D
:103918008002C3F8F420D3F8F43003F080030B934B
:103928000B9BDFE7544B5648D3F8E02042F00202E5
:10393800C3F8E020D3F8E02002F002020192019AD5
:10394800FFF798FF4C4B00221F20D3F8E81041F4F2
:10395800001C1146C3F8E8C0D3F8E8C00CF4001CFA
:10396800CDF808C0DDF808C0D3F8D8C04CF0010C79
:10397800C3F8D8C0D3F8D83003F001030393039BEE
:1039880002F076FB1F200DB05DF804EB02F0A0BB3F
:10399800394B3C48D3F8E02042F08002C3F8E020DD
:1039A800D3F8E02002F080020492049AD3F8E020D1
:1039B80042F00202C3F8E020D3F8E02002F002024D
:1039C8000592059AFFF756FF2B4B00222120D3F8CA
:1039D800E81041F4800C1146C3F8E8C0D3F8E8C0F9
:1039E8000CF4800CCDF818C0DDF818C0D3F8D8C096
:1039F8004CF0010CC3F8D8C0D3F8D83003F0010359
:103A08000793079B02F034FB21200DB05DF804EB0F
:103A180002F05EBB1C48FFF72DFF174B0022482021
:103A2800D3F8E8C011464CF4000CC3F8E8C0D3F84A
:103A3800E8C00CF4000CCDF820C0DDF820C0D3F8A5
:103A4800D8C04CF0010CC3F8D8C0D3F8D83003F074
:103A580001030993099B02F00BFB48200DB05DF8A8
:103A680004EB02F035BB00BF005400400058004092
:103A7800005C0040001C005800440258F8AD0624C1
:103A880070AB062448AC062420AD06240D4B00225A
:103A980010210D484FF0FF0C5A6019801A8180F8E8
:103AA80000C05A611983DA611A84DA6219865A6386
:103AB8001A875A64C3E90322C3E90922C3E90F221A
:103AC800704700BF000000246CAB0624EFF310829F
:103AD80072B60C4B1978090603D50AB962B6704755
:103AE800704700B51B78D820074983B05BB20192B4
:103AF80000FB031003F0A2FA019A02B962B603B000
:103B080000BD00BF6CAB062484AB0624014805F059
:103B18000BB900BFFCAB0624014805F005B900BF8E
:103B2800D4AC0624014805F0FFB800BFACAD0624AC
:103B3800F0B50C68D825414E87B004FB05F5032C79
:103B480006EB050303605FDCCA68012A5CD857D01E
:103B58000F4608689C464968BA680DF1180EFB685C
:103B6800ACE80F00D822364B02FB04613A7C019185
:103B78008CF80020D1F808C00FCB0EE90F000EEB2F
:103B88008403019ABCF1010F53F8103CC2F88C3041
:103B980048D0BCF1020F3AD0BCF1000F09D101F0B6
:103BA800B3F9284B019A98420CBF274B274BC2F810
:103BB8009030D8233A7C2649012003FB04F45200B4
:103BC8008C3533199834C3F894200022C3E92602AF
:103BD800C3F8A020A8190A510C446260C3F8AC20AD
:103BE80004F0D0FD80B90146A81905F0AFF858B91E
:103BF8000146A81905F0D6F8003818BF012004E0DE
:103C08000A7C103A672AA3D9012007B0F0BD01F059
:103C18007BF90C4B019A98420CBF0E4B0E4BC2F825
:103C28009030C6E701F070F9064B019A98420CBF34
:103C38000A4B0B4BC2F89030BBE700BF70AB0624B1
:103C4800EC250590000E27075F4390608A62E030FC
:103C58007CAB0624200BA0101A0980102D0FB03061
:103C68003211D0202DE9F041046884B0E068BDF835
:103C78002C50C8B9984617460E468C34204605F095
:103C880061F82028FAD120460C9C43463A46314632
:103C9800CDE901540A9C009404F0FAFE003818BFDC
:103CA800012004B0BDE8F081012004B0BDE8F08136
:103CB8002DE9F041046884B0E068BDF82C50C8B91B
:103CC800984617460E468C34204605F03BF82028C7
:103CD800FAD120460C9C43463A463146CDE9015478
:103CE8000A9C009404F0AEFD003818BF012004B00F
:103CF800BDE8F081012004B0BDE8F081044B10223A
:103D08001A7483F8E82083F8C02183F89822704752
:103D180070AB062410B5002396B04FF480710622CC
:103D280004460D9308921593CDE90E13CDE910338F
:103D3800CDE9133301F0ECF807282DD004F1100376
:103D480041F2883208A91846019305F0CFFE28B140
:103D5800012384F85C30012016B010BD0222012333
:103D68004FF0100C08A905934FF480030198CDF883
:103D780010C0CDE902220022CDE9062305224FF02A
:103D88008073089202AA119341F2883306F044F82E
:103D98000028DDD116B010BD032384F85C30DAE7C3
:103DA80030B50023A7B04FF080724FF480750446F9
:103DB800ADF80E301D932593CDE920320122CDE9CF
:103DC8001E53CDE923332292002942D0F02200F17C
:103DD800100518ABADF80E20C02041F28832194604
:103DE8001890284605F082FE28B1012384F85C303B
:103DF800012027B030BD41F288320DF10E0128466E
:103E080005F0F4FE03460028EFD14FF48071052237
:103E1800284601250A92102212930F9317930493B0
:103E28000795CDE910139FED1E7B4FF08071CDE90A
:103E38001533139141F288330AA9CDE905526A4432
:103E48008DED087B05F0E8FF0028D2D084F85C509F
:103E5800CEE718AB612100F1100541F288321891C4
:103E680019462846019305F041FE0028BDD141F2CC
:103E780088320DF10E01284605F03EFF0028B4D126
:103E8800BDF80E20204622F0780242F04002ADF83C
:103E98000E20FFF73FFF019B00289DD0A5E700BF3C
:103EA80000000000000040002DE9F04D0023AAB0FA
:103EB8004FF4807501248DF807304FF080782193F6
:103EC800074613931B9322951C94CDF89480CDE953
:103ED8002333CDE92643CDE92833CDE91453CDE981
:103EE8001633CDE9193306230E9301F011F807288C
:103EF80007D041F288320EA907F1100005F0F6FD4F
:103F080030B1012387F85C3001202AB0BDE8F08D7C
:103F180002234FF0000B4FF4800C08AA0EA907F1FA
:103F280010000B94CDF85C80CDE9083310230A9378
:103F380005230E9341F28833CDE90CBC05F06CFFE4
:103F48000028DED141F2883207F110001CA905F0E3
:103F5800CDFD0028D5D1402341F288320DF107016B
:103F680007F110008DF8073005F040FE0028C8D191
:103F7800402305204FF0000A4FF4800B1C901CA929
:103F880002AA07F110000594CDF89480CDE9023318
:103F98001023049341F28833CDE906AB05F03CFFCA
:103FA80003460028ADD10520102213930EA90E90C8
:103FB80007F110000A9208AA1B931495CDF85C80AB
:103FC8000B94CDE91533CDE91933CDE9083441F225
:103FD8008833CDE90CAB05F01FFF002895D087F892
:103FE8005C4091E7000000002DE9F0415E4CA4B070
:103FF8000E46046000F08CFF072800F0A6803068A9
:1040080025467168B26807C5B389284620F8043B7D
:10401800237B94F80D80019305F048FDD8B9019BE6
:104028000126E061012B514BC4E9056623610CBFF1
:104038004FF400034FF4801393FAA3F3B3FA83F316
:104048004FF48077013B6762C4E90B00281D2362A7
:1040580005F0ACFC38B1012384F85C300127384600
:1040680024B0BDE8F08166230D90159041F28832A6
:1040780008A90893CDE90E70CDE91000CDE9130029
:10408800281D05F033FD0028E5D1992341F2883237
:1040980008A9281D089305F029FD0028DBD1052370
:1040A8001E901B9002AA16934FF08073239016A9B6
:1040B8001F9310230596049341F288339FED267BC6
:1040C800CDE91C70CDE92100CDE90206281D8DED52
:1040D800067B05F0A1FE0028BDD101992046FFF717
:1040E8005FFE0028B7D12046FFF7DEFE074600280E
:1040F800B1D1B8F1000FB2D14FF4807308AA16A954
:10410800281D1C93EB231A9716934FF440631D93B5
:104118004FF4005319934FF440431E93A023189370
:1041280006231B934FF080539FED0D7B23934FF095
:104138004073CDE921771F938DED087B05F000FFD3
:1041480000288CD084F85C6088E7032384F85C300E
:1041580084E700BFAFF300800000000000004000CB
:104168000000000000000000D0AE062400500052FD
:104178002DE9F0478CB03E4B0024026800AF9A420C
:10418800FC62C7E90744C7E9094403D03037BD4694
:10419800BDE8F087374B40F609213748EA46D3F89F
:1041A800D42007F11405354E07F11A0842F480426D
:1041B800C3F8D420D3F8D42002F480423A603A6895
:1041C800D3F8E02042F04002C3F8E020D3F8E02022
:1041D80002F040027A607A68D3F8E02042F02002C8
:1041E800C3F8E020D3F8E02002F02002BA60BA68F1
:1041F800D3F8E02042F01002C3F8E020D3F8E02022
:1042080002F01002FA60FA68D3F8E02042F00202E5
:10421800C3F8E020D3F8E030786103F00203398373
:104228003B613B6956F8040F00F096FF8146306801
:1042380000F09AFF0223F86107F11C014846C7E91C
:1042480008340323BB6215F8013BFB6203F058FAFC
:104258004545E7D100225C20114601F009FF5C20AA
:1042680001F036FF3037D546BD46BDE8F08700BFC0
:1042780000500052004402580A0A09092CAF0624CB
:10428800114B02689A4200D07047104A70B5D2F8B4
:10429800D4300F4C23F4804304F11806C2F8D4300C
:1042A80054F8040F00F058FF0546206800F05CFF42
:1042B8000146284603F01CFCB442F1D15C20BDE85D
:1042C800704001F013BF00BF005000520044025874
:1042D8002CAF0624014805F0BDBE00BFE0AE0624A1
:1042E800074B1A1D03F1020C981D03F108019A6689
:1042F80003F10A02C3E9183CC3E91B015A67704776
:10430800D0AE06242DE9F041821D05468AB0031D72
:1043180005F10A010830CDE9052305F10C02AB6966
:10432800CDE907010992002B3AD0EF69B7FA87F770
:104338007F090123022205AE4FF006080393CDE959
:10434800012356F8044B2B792278934216D02B6818
:10435800EBB1012B02D1EAB10A230493204600F005
:1043680003FF0090204600F0F7FE694603F0C8F905
:104378000AAB9E42E5D10AB0BDE8F081697963785D
:104388009942E4D1002FF3D02B68002BE1D1CDF86E
:104398001080E3E76378022B0CBF08230A23DCE7CD
:1043A8000127C6E7AE49024603688B4200B58DB0C7
:1043B80000F08A8020318B4200F08680A9498B4228
:1043C80004D020318B4201D00DB000BDA64B009225
:1043D800D3F8E010A54841F00101C3F8E010D3F884
:1043E800E01001F0010107910799D3F8E01041F0BE
:1043F8000801C3F8E010D3F8E01001F008010891B3
:104408000899D3F8E01041F04001C3F8E010D3F860
:10441800E01001F0400109910999D3F8F01041F436
:104428000001C3F8F010D3F8F01001F400010A916C
:104438000A99FFF767FF8C4B009AD3F8D800D2F897
:1044480000C08B4940F00102D1F85C02C3F8D820C3
:10445800D3F8D83003F001030B93824B0B9A9C4599
:1044680000F0BB80D1F88032013B18BF01239A01CC
:10447800002840F0E1807F4801F22C434FF0580CAF
:1044880001F54771C1F810010020019100935862AD
:10449800C3E901C24FF4806C4FF48052C3E9030CA6
:1044A8005A614FF4804C4FF480721846C3E906C233
:1044B8004FF400321A6202F067F9DDE90031002892
:1044C80000F0A180FFBEFEE7674B0092D3F8E01032
:1044D800674841F00101C3F8E010D3F8E01001F09B
:1044E800010102910299D3F8E01041F01001C3F8DC
:1044F800E010D3F8E01001F0100103910399D3F80C
:10450800E01041F04001C3F8E010D3F8E01001F0EA
:10451800400104910499D3F8F01041F48001C3F8E4
:10452800F010D3F8F01001F4800105910599FFF718
:10453800E9FE4D4B009AD3F8D810D2F800E041F0CC
:104548000101DFF81CC14A48C3F8D810E645D3F882
:10455800D830026803F001030693069B2DD0436A06
:10456800013B18BF01239901002A5BD1414A4FF052
:10457800580C00F5E873C0F8D02100F1C002002003
:10458800019200935862C3E901C14FF4806C4FF463
:104598008051C3E9030C59614FF4804C4FF480718A
:1045A8001846C3E906C14FF40031196202F0ECF86D
:1045B800DDE9003210B3FFBEFEE7036A013B18BF16
:1045C8000123990122BB2C4A4FF0570C00F5AC731C
:1045D800C0F8582100F12802D1E7D1F87C32013B1C
:1045E80018BF01239A0188BB234801F56D734FF06A
:1045F800570C01F52171C1F8300145E7C2E92033B4
:104608009A630DB000BDC1E9203399630DB000BDB8
:104618001A4A4FF0590C00F5AC73C0F8582100F154
:104628002802ACE7164A4FF05A0C00F5E873C0F8B8
:10463800D02100F1C002A2E7114801F22C434FF04B
:104648005A0C01F54771C1F810011DE70B4801F537
:104658006D734FF0590C01F52171C1F8300113E762
:1046680004580140045C014000440258A4B10624E7
:1046780048AF0624280002401000024058000240BB
:1046880070000240014802F0D9BC00BFA0B0062467
:10469800014802F0D3BC00BF18B10624014802F05B
:1046A800CDBC00BFFCB20624014802F0C7BC00BF65
:1046B80074B306241A4A0368934200B509D020321D
:1046C800934206D0174A934215D02032934212D013
:1046D80000BD154B0022D3F854E2C3F85822BEF1AE
:1046E800000FF5D0D3F84802D3E9931273465DF86A
:1046F80004EB520818470C4B0022D3F8B0E4C3F877
:10470800B424BEF1000FE3D0D3F8AC24D3F8A81436
:10471800D3F8A404520873465DF804EB184700BFA9
:1047280004580140045C014048AF0624184A036855
:10473800934200B509D02032934206D0154A9342DD
:1047480016D02032934213D000BD134BD3E9942ED8
:104758005208C3F85822BEF1000FF5D0D3E99201F0
:10476800734601EB820100EB82005DF804EB184709
:10477800094BD3F8AC24D3F8B0E45208C3F8B424F6
:10478800BEF1000FE0D0D3F8A814D3F8A404E7E7EB
:1047980004580140045C014048AF062400000000B2
:1047A8002DE9F047D1F800C04FF41777764D86B061
:1047B80007FB0CF7BCF1010F05EB0708C0F80080F8
:1047C80000F39C804FF0000907F512730E460C4663
:1047D80045F803902B44C646C3F80490C8F8509295
:1047E80065A3D3E9002366A1D1E90001CDE902233D
:1047F8000DEB8C03CDE904019A681B6900920193C3
:104808000FCCAEE80F000FCCAEE80F00009A019B6A
:1048180094E80300C8F828208EE80300C8F8C030E0
:104828003369042B0DD8DFE803F07D87910374000A
:104838004FF417734BF6803203FB0C539A64C3F89A
:10484800E020B269316A002A54D000294FF00102F1
:1048580014BF032102214FF4177303FB0C53C3E960
:104868000B12F269716A002A4CD1891A18BF01210A
:1048780070694FF41773022803FB0C53C3E9311214
:1048880006D8424B13F80090414B53F820309A4613
:104898004FF4177300223F4907F1280003FB0CF37C
:1048A800284403F1380403F1500C03F1D0060A51EF
:1048B8000C44626003F1E8042B445A645A6341F8DB
:1048C8000C208C44CCF80420DA658A510E447260BE
:1048D800C3F8DC20C3F8CC200A510C44514662606E
:1048E800C3F8F42002234A4607F01AFD002837D0FF
:1048F800FFBEFEE7891A18BF0121ACE7012006B008
:10490800BDE8F08700294FF0010214BF03210221FE
:10491800AEE74FF41773204A03FB0C539A64C3F8AD
:10492800E0208EE74FF417734FF4FA5203FB0C5351
:104938009A64C3F8E02084E74FF417734FF47A526F
:1049480003FB0C539A64C3F8E0207AE74FF417731B
:104958004FF4FA4203FB0C539A64C3F8E02070E763
:1049680007F1C00002234A465146284407F0D8FC04
:104978000028C4D0FFBEFEE704580140045C014093
:1049880024580140245C014048AF062400270590C4
:10499800F42605904CAF06240077010000687047A4
:1049A80070B5046882B015460E46C4F85032C4E9A2
:1049B80092129AB2069BC4F85432A369012B24D0F0
:1049C800636A0192012B10D0294604F1C00007F058
:1049D80075FD236A019A012B0FD0294604F128009E
:1049E80007F06CFD002002B070BD04F1C00007F0B4
:1049F800EBFD236A019A012BEFD1314604F128001F
:104A080007F0E2FD002002B070BD236A0192012B7D
:104A180010D0294604F1280007F050FD636A019A76
:104A2800012B0FD0294604F1C00007F047FD0020F4
:104A380002B070BD04F1280007F0C6FD636A019A50
:104A4800012BEFD1314604F1C00007F0BDFD002075
:104A580002B070BD03681B69042B05D8044A02EB39
:104A6800830393ED000A70479FED020A704700BF69
:104A7800E026059000803B470368D3F8580270474A
:104A880008B500F083FCBDE8084001F0A9BB00BFF1
:104A9800064808B503680BB103F04CF904480368ED
:104AA8001BB1BDE8084004F0A7B908BD10B806243A
:104AB80008B40624064808B503680BB103F03AF9B0
:104AC800044803681BB1BDE8084004F095B908BD67
:104AD80010B8062408B40624064808B503680BB1C4
:104AE80003F028F9044803681BB1BDE8084004F046
:104AF80083B908BD10B8062408B40624364BDA6A10
:104B0800520062D59A6A9A6A9A6A9B6A180600D510
:104B180000BE314B9B6A990600D500BE2E4B9B6A9E
:104B2800DA0600D500BE2C4B9B6A1B0700D500BED9
:104B3800294B9B6A980700D500BE274B9B6AD9076B
:104B480000D500BE244B9B6A1A0400D500BE224B38
:104B58009B6A9B0400D500BE1F4B9B6AD80400D5F6
:104B680000BE1D4B9B6A190500D500BE1A4B9B6AF7
:104B78005A0500D500BE184B9B6A9B0500D500BEA0
:104B8800154B9B6AD80500D500BE134B9B6A99014B
:104B980000D500BE104B9B6ADA0100D500BE0E4B53
:104BA8009B6A1B0300D500BE0B4B9B6A580300D5BC
:104BB80000BE094B9B6A990300D500BE064B9B6A51
:104BC800DA0306D400BE00BEFEE7DB6A9B07FAD50F
:104BD800F8E700BEF6E700BF00ED00E000F0E8BB34
:104BE8000A4B9B6803F17843B3F5003F0BD3084B9E
:104BF800986848B19868012806D09868022803D0B8
:104C08009868032070470120704700BF00ED00E05E
:104C1800000080382DE9F041CEB004464C22002136
:104C28000AA80DF003FB2022002102A80DF0FEFACD
:104C3800BC2200211EA80DF0F9FA022004F0B0FDF4
:104C48002368012B51D05249002202250192C86ADB
:104C5800504A20F00100C862C820C96A01F0010169
:104C68000191916941F440419161926902F4404295
:104C78000192019B474A93699904FCD5464902244D
:104C8800002201268B6A4FF00408082723F003034B
:104C980023438B62052316900AA818934FF4803398
:104CA800109617941994CDF854801A97CDE91B22C1
:104CB8002122CDE91344CDE90A2305F0EFFA00B12A
:104CC800FEE7402329463F224FF48065099304906C
:104CD80002A805970895CDE906330323CDE90223F9
:104CE80005F0F8FD0346C8B1FEE72A4900226B46E5
:104CF800042500928869264A40F440408861F020E3
:104D0800896901F440410091D16A41F00101D16201
:104D1800D26A02F0010200921B68ABE74FF48032BE
:104D28004FF4805122941EA846922F94339406245F
:104D380035912197CDF8A8802C951F962396CDE91B
:104D48002531CDE93032CDE92D3300224FF4807181
:104D5800CDE93B334FF4401343911021CDE93E2375
:104D680040F2271280232991249334930C23CDE910
:104D78002742202220932B92084A1E9205F0F2FF28
:104D880000B1FEE704F032FD4EB0BDE8F08100BF8F
:104D98000004005800480258004402580F130F033B
:104DA80070B584B0012401F0C9F94FF480764FF052
:104DB8004052194B6846ADF8004001920025029315
:104DC800039601F0D9F9192368468DF80F408DF83C
:104DD80008304FF04043ADF80D6001938DF8014065
:104DE8008DF80A5001F0C8F902230B2268468DF8A5
:104DF8000F508DF801304FF062538DF80820019361
:104E0800ADF80D408DF80A4001F0B6F9042001F024
:104E1800A3F904B070BD00BF0E00010330B50C4605
:104E2800054685B0D1E9000185E8030000F078FA6D
:104E3800A379A3B30BF01AF8FEF728FE09F0A0FC3B
:104E48000AF006FD23798BBB63799BB1BFF34F8FC3
:104E5800BFF36F8F2A4B0022C3F85022BFF34F8F46
:104E6800BFF36F8F5A6942F400325A61BFF34F8F14
:104E7800BFF36F8F4FF0FF320023002400256946EF
:104E8800204802928DF80C30CDE900450AF078F8F8
:104E98001C480AF0D7F809F01FF905B030BD2846BC
:104EA800FFF7B8FE2846FFF77BFFC3E71448002347
:104EB800C0F88430BFF34F8FD0F8803043F6E075E8
:104EC800C3F34E3CC3F3C90E4FEA4C1C0CEA050170
:104ED800734641EA8372013BC0F860225A1CF8D13C
:104EE800ACF1200C1CF1200FF0D1BFF34F8F4369B8
:104EF80043F480334361BFF34F8FBFF36F8FA3E752
:104F080000ED00E000B4062405F010BE05F02CBE4C
:104F18001C4B9B6803F17842B2F5003F25D3B3F5EB
:104F2800803F20D303F16042B2F5003F1FD303F165
:104F38005C42B2F5002F1CD303F17042B2F5902FFA
:104F480019D303F14842B2F5803F16D303F18042EA
:104F5800B2F1806F13D303F1E043B3F5000F34BF10
:104F68000720082070470120704700207047022062
:104F780070470320704704207047052070470620BB
:104F8800704700BF00ED00E0014B00221A60704737
:104F980000B4062400F57171D0F8040408F06CBC64
:104FA8000346C1EBC102D0F8040403EB8203D3F833
:104FB800082208F095BC00BF0346C1EBC102D0F837
:104FC800040403EB82039A6C08F0CABCD0F804040A
:104FD80008F06EBDC16819B1022900D0FEE70121B1
:104FE8000346D0F8040400B583B0019308F04AFDE5
:104FF800019BD3F8040403B05DF804EB08F01ABD74
:1050080010B50446D0F8040408F040FD2268D2F830
:10501800003E43F00103C2F8003E236A23B1034A6D
:10502800136943F00603136110BD00BF00ED00E0F3
:10503800D0F8040408F034BDD0F8040408F048BDE2
:10504800D0F8040408F042BDD0F8040408F042BDCA
:10505800D0F8040408F040BD9446D0F898021A46E7
:1050680008B5634604F080FA18B102280CBF012085
:10507800022008BD08B5D0F8980204F007FB18B163
:1050880002280CBF0120022008BD00BF08B5D0F8D7
:10509800980204F047FB18B102280CBF0120022037
:1050A80008BD00BF0A06D0F8983206D4C1EBC1018A
:1050B80003EB810393F8FE01704701F07F01C1EB18
:1050C800C10103EB810393F83E00704708B5D0F89F
:1050D800980204F02FFA18B102280CBF0120022010
:1050E80008BD00BF08B5D0F8980204F0A7FA18B1B7
:1050F80002280CBF0120022008BD00BF08B5D0F867
:10510800980204F06FFA18B102280CBF012002209F
:1051180008BD00BFD0F8C00208F098BFD0F8C002A0
:1051280008F0ACBFD0F8C00208F0B4BF704700BFA9
:10513800D0F8C00208F09ABFD0F8C00208F09ABFB1
:1051480008B5D0F8D00303F049FA18B102280CBF0B
:105158000120022008BD00BF024B027853F822004C
:10516800704700BF24270590024B427833F812009D
:10517800704700BF042705908CB00A2814D8DFE8D0
:1051880000F023313F4D5B697785930615004D4B41
:10519800D3F8E02042F40072C3F8E020D3F8E030FE
:1051A80003F400730A930A9B0CB07047454BD3F87D
:1051B800E02042F48062C3F8E020D3F8E03003F442
:1051C80080630B930B9BEFE73E4BD3F8E02042F054
:1051D8000102C3F8E020D3F8E03003F001030193A3
:1051E800019BE1E7374BD3F8E02042F00202C3F815
:1051F800E020D3F8E03003F002030293029BD3E7E8
:10520800304BD3F8E02042F00402C3F8E020D3F892
:10521800E03003F004030393039BC5E7294BD3F85D
:10522800E02042F00802C3F8E020D3F8E03003F0B1
:1052380008030493049BB7E7224BD3F8E02042F01D
:105248001002C3F8E020D3F8E03003F01003059310
:10525800059BA9E71B4BD3F8E02042F02002C3F8D6
:10526800E020D3F8E03003F020030693069B9BE789
:10527800144BD3F8E02042F04002C3F8E020D3F802
:10528800E03003F040030793079B8DE70D4BD3F8FD
:10529800E02042F08002C3F8E020D3F8E03003F0C9
:1052A80080030893089B7FE7064BD3F8E02042F47D
:1052B8008072C3F8E020D3F8E03003F480730993D8
:1052C800099B71E700440258704700BF114B1B78D7
:1052D8000BB90120704700B583B00F4A01904FF415
:1052E8007A70B0FBF3F31068B0FBF3F000F010FF36
:1052F80001990F2900D810B1012003B000BD024662
:105308004FF0FF3000F0B4FE044B00200199196003
:1053180003B000BD48000024740300244C0000249E
:1053280000B5032083B000F091FE05F043FA134A5C
:10533800DFF850C09369DFF850E0C3F30323104946
:105348001CF8033003F01F0320FA03F30E20CEF8F5
:105358000030926902F00F021CF8022002F01F02CE
:10536800D3400B60FFF7B2FF10B1012003B000BDBE
:105378000190FFF7A9FF019803B000BD004402584F
:1053880070030024C027059074030024034A044BCB
:1053980011681B780B441360704700BFD4BA062409
:1053A80048000024014B1868704700BFD4BA06248F
:1053B80038B50446FFF7F6FF0546631C02D0044BD8
:1053C8001B781C44FFF7EEFF401BA042FAD338BD00
:1053D80048000024014B1868000C70470010005C5E
:1053E800704700BF806B08B5FFF7FAFF08BD00BF24
:1053F800836B5A6D12F0500F5A6D10B51DD1196894
:1054080042F400725A650A6812F0080FCA681BD085
:1054180012F4406F0DD1CA6894040AD45A6D22F46C
:1054280080725A655A6DD10403D45A6D42F0010254
:105438005A651846FDF75EFD10BDD2060AD4DB6C2E
:10544800BDE81040DB6C18479007E7D01846FDF719
:1054580051FDF1E71846FDF7E5FD10BD806B08B575
:10546800436D43F040034365836D43F00403836554
:10547800FDF7D8FD08BD00BF70B5002282B00192CB
:1054880090F85020012A00F00E81026803469068C7
:1054980044075DD40868C0F3130CC0F3846EBCF1F4
:1054A800000F5FD1012000FA0EFCD4691F2548685F
:1054B80044EA0C0CC2F81CC04FEA901C00F01F0014
:1054C8000CF00C0C0EFA00F402F1300E05FA00F0A4
:1054D8005EF80C5025EA000020434EF80C00906856
:1054E80010F0040F906801D1000744D59068C607F2
:1054F80001D5002031E0CC68D1F800C004F0180EC6
:10550800BF48D2F8C060CCF3130520FA0EF026EAA3
:10551800050E00EA0C0040EA0E00C2F8C000B948C7
:10552800844279D0BCF1000FE3DAB7498A4204D04B
:1055380001F580718A4240F0B980B449B24A89685D
:10554800926812F0010FB24A926801D1D507D0D5FE
:105558005A6D012042F020025A65002283F850203B
:1055680002B070BD90FAA0F04FF0010CB0FA80F0D4
:105578000CFA00FC99E708680724C0F3045C4FEABA
:10558800D05E04FA0CF50EF0040E02F1140454F87F
:105598000E0020EA05008D6805FA0CFC40EA0C00B4
:1055A80044F80E009B48D1F814C0006800F0704021
:1055B800B0F1805FD06804D010F0100FD06840F0D0
:1055C800BB80C0F3820040000CFA00F5D1F810C08F
:1055D8000868BCF1040F00F0B58002F1600E00F01D
:1055E800F8445EF82C0000F00040204328434EF8B1
:1055F8002C0091F819C00869ACF1010C0C695EF82F
:105608002000BCFA8CFC20F000404FEA5C1C40EA09
:10561800CC704EF8240069E7002D70D09CFAACF0ED
:10562800B0FA80F0013000F01F00092800F2B480C1
:105638009CFAACF0B0FA80F09CFAACFEBEFA8EFE92
:10564800013001240EF1010E80060EF01F0E00F04D
:10565800F84004FA0EFE40EA0E009CFAACFEBEFAD0
:105668008EFEA6440EF01F0E0EEB4E0E4FEA0E5E97
:105678004EEA00004FEAD05E0724C0F304500EF053
:10568800040E04FA00F502F1140454F80EC02CEAD2
:10569800050C8D6805FA00F04CEA000044F80E008D
:1056A800D1F800C03EE7022002B070BD5A488168B8
:1056B8000D465A49D1F808E01EF0010F7FF448AFB3
:1056C800DFF85CE105F0E076F44500F0AF80DFF844
:1056D80054E1F44500F08580DFF84CE1F4457FF4AF
:1056E80008AF6C023FF505AF8A427FF402AF8268CB
:1056F80022F0E072324342F480028260F9E64FEA17
:105708009C6C01200CF1010C0CF01F0E4FEA8C6C04
:1057180000FA0EF00CF0F84CBEF1090F4CEA00004C
:10572800A2D9AEF10A0E0EEB4E0E4FEA0E5C4CF00B
:10573800007C4CEA00009DE7400800F008000CFAE5
:1057480000F543E7D2F860E04FEA806C0EF0F84EBF
:10575800BEEB806F03D1106E20F000401066506ED3
:1057680000F0F840844503D1506E20F000405066A8
:10577800906E00F0F840844503D1906E20F0004010
:105788009066D06E00F0F84084457FF4AFAED06EDE
:1057980020F00040D066A9E69CFAACF0B0FA80F0A0
:1057A8009CFAACFEBEFA8EFE013001240EF1010E09
:1057B80080060EF01F0E00F0F84004FA0EFE40EAD4
:1057C8000E009CFAACFCBCFA8CFCA4440CF01F0C38
:1057D800ACF10A0C0CEB4C0C4FEA0C5C4CF0007C66
:1057E800A7E7ED013FF585AE8A427FF482AE826875
:1057F80022F0E072324342F08072826079E600BFA4
:10580800FFFF0F000000FF47002002400023024076
:10581800002102400010005C00630258006002583A
:10582800000084CB000052C70000B8CF2C023FF51F
:1058380060AE8A427FF45DAE82680D4922F0E07264
:10584800324342F4000282600A680A499209A1FBC5
:105858000212920952000192019A002A3FF449AEBD
:10586800019A013A0192019A002AF9D141E600BF52
:1058780074030024632D3E0538B503689A68D4077D
:1058880022D499680446224A114209D0636D012046
:1058980043F010036365A36D43F00103A36538BDAE
:1058A80099681C4A0A4042F001029A60FFF77AFDA3
:1058B8002368194A0546934208D1184A9268D006C7
:1058C80019D0174A934216D1002038BD02F58072CC
:1058D8009342F2D0134A92680DE09A6822F000428F
:1058E80022F03F0242F001029A60FFF75BFD401B85
:1058F8000228CBD823681A68D207E5D49A68D1075A
:10590800EBD5FFF74FFD401B0228F3D9BEE700BFD8
:105918003F000080C0FFFF7F0020024000230240BC
:105928000021024000630258F0B53E4B044600686F
:1059380083B098421FD003F5807398421BD03A4B2E
:10594800D3F808C0836813F004031BD194F85000FF
:10595800012817D00CF01F0540F221204FF0010C50
:10596800E84084F850C010EA0C000ED184F85000CA
:10597800012003B0F0BD2D4BD3F808C0836813F0A5
:105988000403E3D0022003B0F0BD2046019317467C
:105998000E46FFF771FF019B00283ED1626D244B34
:1059A8002168134043F48073636515B1214B994214
:1059B80003D0636D23F480136365636D13F4805320
:1059C8002ED0A36D23F00603A365E06C3B46DFF8F9
:1059D8006CC032464031C0F83CC0DFF864C0C0F843
:1059E80040C0DFF860C0C0F84CC04FF01C0C41F854
:1059F80040CC4FF0000C84F850C051F83CCC4CF02F
:105A0800100C41F83CCC01F05BF822680A4B916815
:105A18000B4043F004039360B5E784F85030A7E7E0
:105A2800A365D2E700200240006302580023024029
:105A3800FEF0FFFF00210240C0FFFF7FF9530490F2
:105A4800ED53049065540490026891688B0702D561
:105A58009368002070479168C907FAD5916801F0EA
:105A68000D01012909D0426D42F010024265826D94
:105A780042F00102826501207047D2F808C014493B
:105A880010B50CEA010182B041F002010190032037
:105A980091601060FFF786FC019B044606E00193C5
:105AA800FFF780FC001B019B022806D81A68926841
:105AB800D207F4D4002002B010BD5A6D012042F084
:105AC80010025A659A6D42F001029A65F3E700BF29
